{
  "_format": "hh-sol-artifact-1",
  "contractName": "ExecutionRouter",
  "sourceName": "contracts/ExecutionRouter.sol",
  "abi": [
    {
      "inputs": [
        {
          "internalType": "address",
          "name": "_agentRegistry",
          "type": "address"
        }
      ],
      "stateMutability": "nonpayable",
      "type": "constructor"
    },
    {
      "inputs": [
        {
          "internalType": "address",
          "name": "owner",
          "type": "address"
        }
      ],
      "name": "OwnableInvalidOwner",
      "type": "error"
    },
    {
      "inputs": [
        {
          "internalType": "address",
          "name": "account",
          "type": "address"
        }
      ],
      "name": "OwnableUnauthorizedAccount",
      "type": "error"
    },
    {
      "inputs": [],
      "name": "ReentrancyGuardReentrantCall",
      "type": "error"
    },
    {
      "inputs": [
        {
          "internalType": "address",
          "name": "token",
          "type": "address"
        }
      ],
      "name": "SafeERC20FailedOperation",
      "type": "error"
    },
    {
      "anonymous": false,
      "inputs": [
        {
          "indexed": true,
          "internalType": "bytes32",
          "name": "agentId",
          "type": "bytes32"
        },
        {
          "indexed": true,
          "internalType": "address",
          "name": "token",
          "type": "address"
        },
        {
          "indexed": false,
          "internalType": "uint256",
          "name": "amount",
          "type": "uint256"
        }
      ],
      "name": "FundsDeposited",
      "type": "event"
    },
    {
      "anonymous": false,
      "inputs": [
        {
          "indexed": true,
          "internalType": "bytes32",
          "name": "agentId",
          "type": "bytes32"
        },
        {
          "indexed": true,
          "internalType": "address",
          "name": "token",
          "type": "address"
        },
        {
          "indexed": false,
          "internalType": "uint256",
          "name": "amount",
          "type": "uint256"
        }
      ],
      "name": "FundsWithdrawn",
      "type": "event"
    },
    {
      "anonymous": false,
      "inputs": [
        {
          "indexed": true,
          "internalType": "address",
          "name": "previousOwner",
          "type": "address"
        },
        {
          "indexed": true,
          "internalType": "address",
          "name": "newOwner",
          "type": "address"
        }
      ],
      "name": "OwnershipTransferred",
      "type": "event"
    },
    {
      "anonymous": false,
      "inputs": [
        {
          "indexed": true,
          "internalType": "bytes32",
          "name": "agentId",
          "type": "bytes32"
        },
        {
          "indexed": true,
          "internalType": "address",
          "name": "tokenIn",
          "type": "address"
        },
        {
          "indexed": true,
          "internalType": "address",
          "name": "tokenOut",
          "type": "address"
        },
        {
          "indexed": false,
          "internalType": "uint256",
          "name": "amountIn",
          "type": "uint256"
        },
        {
          "indexed": false,
          "internalType": "uint256",
          "name": "amountOut",
          "type": "uint256"
        },
        {
          "indexed": false,
          "internalType": "int256",
          "name": "pnl",
          "type": "int256"
        },
        {
          "indexed": false,
          "internalType": "bytes32",
          "name": "txHash",
          "type": "bytes32"
        }
      ],
      "name": "TradeExecuted",
      "type": "event"
    },
    {
      "inputs": [],
      "name": "agentRegistry",
      "outputs": [
        {
          "internalType": "contract IAgentRegistry",
          "name": "",
          "type": "address"
        }
      ],
      "stateMutability": "view",
      "type": "function"
    },
    {
      "inputs": [
        {
          "internalType": "bytes32",
          "name": "",
          "type": "bytes32"
        },
        {
          "internalType": "uint256",
          "name": "",
          "type": "uint256"
        }
      ],
      "name": "agentTrades",
      "outputs": [
        {
          "internalType": "bytes32",
          "name": "agentId",
          "type": "bytes32"
        },
        {
          "internalType": "address",
          "name": "tokenIn",
          "type": "address"
        },
        {
          "internalType": "address",
          "name": "tokenOut",
          "type": "address"
        },
        {
          "internalType": "uint256",
          "name": "amountIn",
          "type": "uint256"
        },
        {
          "internalType": "uint256",
          "name": "amountOut",
          "type": "uint256"
        },
        {
          "internalType": "uint256",
          "name": "timestamp",
          "type": "uint256"
        },
        {
          "internalType": "bytes32",
          "name": "txHash",
          "type": "bytes32"
        },
        {
          "internalType": "int256",
          "name": "pnl",
          "type": "int256"
        },
        {
          "internalType": "uint256",
          "name": "gasUsed",
          "type": "uint256"
        }
      ],
      "stateMutability": "view",
      "type": "function"
    },
    {
      "inputs": [
        {
          "internalType": "uint256",
          "name": "",
          "type": "uint256"
        }
      ],
      "name": "allTrades",
      "outputs": [
        {
          "internalType": "bytes32",
          "name": "agentId",
          "type": "bytes32"
        },
        {
          "internalType": "address",
          "name": "tokenIn",
          "type": "address"
        },
        {
          "internalType": "address",
          "name": "tokenOut",
          "type": "address"
        },
        {
          "internalType": "uint256",
          "name": "amountIn",
          "type": "uint256"
        },
        {
          "internalType": "uint256",
          "name": "amountOut",
          "type": "uint256"
        },
        {
          "internalType": "uint256",
          "name": "timestamp",
          "type": "uint256"
        },
        {
          "internalType": "bytes32",
          "name": "txHash",
          "type": "bytes32"
        },
        {
          "internalType": "int256",
          "name": "pnl",
          "type": "int256"
        },
        {
          "internalType": "uint256",
          "name": "gasUsed",
          "type": "uint256"
        }
      ],
      "stateMutability": "view",
      "type": "function"
    },
    {
      "inputs": [
        {
          "internalType": "bytes32",
          "name": "agentId",
          "type": "bytes32"
        },
        {
          "internalType": "address",
          "name": "token",
          "type": "address"
        },
        {
          "internalType": "uint256",
          "name": "amount",
          "type": "uint256"
        }
      ],
      "name": "depositForAgent",
      "outputs": [],
      "stateMutability": "nonpayable",
      "type": "function"
    },
    {
      "inputs": [
        {
          "internalType": "address",
          "name": "token",
          "type": "address"
        },
        {
          "internalType": "uint256",
          "name": "amount",
          "type": "uint256"
        }
      ],
      "name": "emergencyWithdraw",
      "outputs": [],
      "stateMutability": "nonpayable",
      "type": "function"
    },
    {
      "inputs": [
        {
          "internalType": "bytes32",
          "name": "agentId",
          "type": "bytes32"
        },
        {
          "internalType": "address",
          "name": "tokenIn",
          "type": "address"
        },
        {
          "internalType": "address",
          "name": "tokenOut",
          "type": "address"
        },
        {
          "internalType": "uint256",
          "name": "amountIn",
          "type": "uint256"
        },
        {
          "internalType": "uint256",
          "name": "minAmountOut",
          "type": "uint256"
        },
        {
          "internalType": "bytes32",
          "name": "txHash",
          "type": "bytes32"
        }
      ],
      "name": "executeTrade",
      "outputs": [
        {
          "internalType": "uint256",
          "name": "amountOut",
          "type": "uint256"
        }
      ],
      "stateMutability": "nonpayable",
      "type": "function"
    },
    {
      "inputs": [
        {
          "internalType": "bytes32",
          "name": "agentId",
          "type": "bytes32"
        },
        {
          "internalType": "address",
          "name": "token",
          "type": "address"
        }
      ],
      "name": "getAgentBalance",
      "outputs": [
        {
          "internalType": "uint256",
          "name": "",
          "type": "uint256"
        }
      ],
      "stateMutability": "view",
      "type": "function"
    },
    {
      "inputs": [
        {
          "internalType": "bytes32",
          "name": "agentId",
          "type": "bytes32"
        }
      ],
      "name": "getAgentTradeCount",
      "outputs": [
        {
          "internalType": "uint256",
          "name": "",
          "type": "uint256"
        }
      ],
      "stateMutability": "view",
      "type": "function"
    },
    {
      "inputs": [
        {
          "internalType": "bytes32",
          "name": "agentId",
          "type": "bytes32"
        }
      ],
      "name": "getAgentTrades",
      "outputs": [
        {
          "components": [
            {
              "internalType": "bytes32",
              "name": "agentId",
              "type": "bytes32"
            },
            {
              "internalType": "address",
              "name": "tokenIn",
              "type": "address"
            },
            {
              "internalType": "address",
              "name": "tokenOut",
              "type": "address"
            },
            {
              "internalType": "uint256",
              "name": "amountIn",
              "type": "uint256"
            },
            {
              "internalType": "uint256",
              "name": "amountOut",
              "type": "uint256"
            },
            {
              "internalType": "uint256",
              "name": "timestamp",
              "type": "uint256"
            },
            {
              "internalType": "bytes32",
              "name": "txHash",
              "type": "bytes32"
            },
            {
              "internalType": "int256",
              "name": "pnl",
              "type": "int256"
            },
            {
              "internalType": "uint256",
              "name": "gasUsed",
              "type": "uint256"
            }
          ],
          "internalType": "struct ExecutionRouter.Trade[]",
          "name": "",
          "type": "tuple[]"
        }
      ],
      "stateMutability": "view",
      "type": "function"
    },
    {
      "inputs": [],
      "name": "owner",
      "outputs": [
        {
          "internalType": "address",
          "name": "",
          "type": "address"
        }
      ],
      "stateMutability": "view",
      "type": "function"
    },
    {
      "inputs": [],
      "name": "renounceOwnership",
      "outputs": [],
      "stateMutability": "nonpayable",
      "type": "function"
    },
    {
      "inputs": [
        {
          "internalType": "address",
          "name": "_agentRegistry",
          "type": "address"
        }
      ],
      "name": "setAgentRegistry",
      "outputs": [],
      "stateMutability": "nonpayable",
      "type": "function"
    },
    {
      "inputs": [],
      "name": "totalSystemPnL",
      "outputs": [
        {
          "internalType": "int256",
          "name": "",
          "type": "int256"
        }
      ],
      "stateMutability": "view",
      "type": "function"
    },
    {
      "inputs": [],
      "name": "totalTradesExecuted",
      "outputs": [
        {
          "internalType": "uint256",
          "name": "",
          "type": "uint256"
        }
      ],
      "stateMutability": "view",
      "type": "function"
    },
    {
      "inputs": [
        {
          "internalType": "address",
          "name": "newOwner",
          "type": "address"
        }
      ],
      "name": "transferOwnership",
      "outputs": [],
      "stateMutability": "nonpayable",
      "type": "function"
    },
    {
      "inputs": [
        {
          "internalType": "bytes32",
          "name": "agentId",
          "type": "bytes32"
        },
        {
          "internalType": "address",
          "name": "token",
          "type": "address"
        },
        {
          "internalType": "uint256",
          "name": "amount",
          "type": "uint256"
        },
        {
          "internalType": "address",
          "name": "recipient",
          "type": "address"
        }
      ],
      "name": "withdrawForAgent",
      "outputs": [],
      "stateMutability": "nonpayable",
      "type": "function"
    }
  ],
  "bytecode": "0x608060405234801561001057600080fd5b5060405161132038038061132083398101604081905261002f916100d8565b338061005557604051631e4fbdf760e01b81526000600482015260240160405180910390fd5b61005e81610088565b5060018055600280546001600160a01b0319166001600160a01b0392909216919091179055610108565b600080546001600160a01b038381166001600160a01b0319831681178455604051919092169283917f8be0079c531659141344cd1fd0a4f28419497f9722a3daafe3b4186f6b6457e09190a35050565b6000602082840312156100ea57600080fd5b81516001600160a01b038116811461010157600080fd5b9392505050565b611209806101176000396000f3fe608060405234801561001057600080fd5b50600436106101005760003560e01c80638fdc5b3611610097578063bf8b517311610066578063bf8b517314610269578063d2a037ab1461027c578063f2fde38b14610285578063f3fb73491461029857600080fd5b80638fdc5b361461021057806395ccea6714610230578063a704adad14610243578063ac08e5021461025657600080fd5b806347ca9c33116100d357806347ca9c3314610174578063715018a6146101d757806377217eac146101df5780638da5cb5b146101ff57600080fd5b80630d1cfcae14610105578063145760ef146101355780631f628d3b1461015657806328342ecf1461015f575b600080fd5b600254610118906001600160a01b031681565b6040516001600160a01b0390911681526020015b60405180910390f35b610148610143366004610e26565b6102ab565b60405190815260200161012c565b61014860075481565b61017261016d366004610e56565b6102d5565b005b610187610182366004610e7a565b6102ff565b60408051998a526001600160a01b0398891660208b015296909716958801959095526060870193909352608086019190915260a085015260c084015260e08301526101008201526101200161012c565b610172610367565b6101f26101ed366004610e7a565b61037b565b60405161012c9190610e93565b6000546001600160a01b0316610118565b61014861021e366004610e7a565b60009081526004602052604090205490565b61017261023e366004610f37565b61044f565b610172610251366004610f63565b610481565b610187610264366004610f9b565b61056d565b610148610277366004610fbd565b6105e2565b61014860065481565b610172610293366004610e56565b610b0b565b6101726102a6366004611019565b610b49565b60008281526003602090815260408083206001600160a01b03851684529091529020545b92915050565b6102dd610c61565b600280546001600160a01b0319166001600160a01b0392909216919091179055565b6005818154811061030f57600080fd5b60009182526020909120600990910201805460018201546002830154600384015460048501546005860154600687015460078801546008909801549698506001600160a01b0395861697949095169592949193909289565b61036f610c61565b6103796000610c8e565b565b606060046000838152602001908152602001600020805480602002602001604051908101604052809291908181526020016000905b82821015610444576000848152602090819020604080516101208101825260098602909201805483526001808201546001600160a01b0390811685870152600283015416928401929092526003810154606084015260048101546080840152600581015460a0840152600681015460c0840152600781015460e08401526008015461010083015290835290920191016103b0565b505050509050919050565b610457610c61565b61047d61046c6000546001600160a01b031690565b6001600160a01b0384169083610cde565b5050565b610489610d3d565b600081116104d35760405162461bcd60e51b81526020600482015260126024820152710416d6f756e74206d757374206265203e20360741b60448201526064015b60405180910390fd5b6104e86001600160a01b038316333084610d67565b60008381526003602090815260408083206001600160a01b03861684529091528120805483929061051a908490611079565b90915550506040518181526001600160a01b0383169084907f6221f2b1a766e0a60a83a05c2ca8be3bf4b8028dbcb5b67624f5392a07372ae39060200160405180910390a361056860018055565b505050565b6004602052816000526040600020818154811061058957600080fd5b60009182526020909120600990910201805460018201546002830154600384015460048501546005860154600687015460078801546008909801549699506001600160a01b039586169850949093169591949093919089565b60006105ec610c61565b6105f4610d3d565b6002546040516305c41dc360e31b8152600481018990526000916001600160a01b031690632e20ee189060240161012060405180830381865afa15801561063f573d6000803e3d6000fd5b505050506040513d601f19601f82011682018060405250810190610663919061108c565b50505050945050505050806106b05760405162461bcd60e51b81526020600482015260136024820152724167656e74206973206e6f742061637469766560681b60448201526064016104ca565b60008881526003602090815260408083206001600160a01b038b1684529091529020548511156107195760405162461bcd60e51b8152602060048201526014602482015273496e73756666696369656e742062616c616e636560601b60448201526064016104ca565b606461072686606361111f565b6107309190611136565b9150838210156107765760405162461bcd60e51b81526020600482015260116024820152700a6d8d2e0e0c2ceca40e8dede40d0d2ced607b1b60448201526064016104ca565b60008881526003602090815260408083206001600160a01b038b168452909152812080548792906107a8908490611158565b909155505060008881526003602090815260408083206001600160a01b038a168452909152812080548492906107df908490611079565b90915550600090506107f1868461116b565b90506000808213905060006040518061012001604052808c81526020018b6001600160a01b031681526020018a6001600160a01b031681526020018981526020018681526020014281526020018781526020018481526020015a8152509050600460008c81526020019081526020016000208190806001815401808255809150506001900390600052602060002090600902016000909190919091506000820151816000015560208201518160010160006101000a8154816001600160a01b0302191690836001600160a01b0316021790555060408201518160020160006101000a8154816001600160a01b0302191690836001600160a01b03160217905550606082015181600301556080820151816004015560a0820151816005015560c0820151816006015560e082015181600701556101008201518160080155505060058190806001815401808255809150506001900390600052602060002090600902016000909190919091506000820151816000015560208201518160010160006101000a8154816001600160a01b0302191690836001600160a01b0316021790555060408201518160020160006101000a8154816001600160a01b0302191690836001600160a01b03160217905550606082015181600301556080820151816004015560a0820151816005015560c0820151816006015560e082015181600701556101008201518160080155505060066000815480929190610a1290611192565b91905055508260076000828254610a2991906111ab565b909155505060025460405163a0f4e50b60e01b8152600481018d90526024810185905283151560448201526001600160a01b039091169063a0f4e50b90606401600060405180830381600087803b158015610a8357600080fd5b505af1158015610a97573d6000803e3d6000fd5b5050604080518b815260208101899052908101869052606081018990526001600160a01b03808d1693508d1691508d907fc0449c95144588d9c76a34cbfa91c8c2f1e2231da903d8a2540a2cd108015ab59060800160405180910390a450505050610b0160018055565b9695505050505050565b610b13610c61565b6001600160a01b038116610b3d57604051631e4fbdf760e01b8152600060048201526024016104ca565b610b4681610c8e565b50565b610b51610c61565b610b59610d3d565b60008481526003602090815260408083206001600160a01b0387168452909152902054821115610bc25760405162461bcd60e51b8152602060048201526014602482015273496e73756666696369656e742062616c616e636560601b60448201526064016104ca565b60008481526003602090815260408083206001600160a01b038716845290915281208054849290610bf4908490611158565b90915550610c0e90506001600160a01b0384168284610cde565b826001600160a01b0316847f13e7ed68a0fe9e4bcafdde5f49381514a9ee7e34ff7d926eadab64c1e0e77f1684604051610c4a91815260200190565b60405180910390a3610c5b60018055565b50505050565b6000546001600160a01b031633146103795760405163118cdaa760e01b81523360048201526024016104ca565b600080546001600160a01b038381166001600160a01b0319831681178455604051919092169283917f8be0079c531659141344cd1fd0a4f28419497f9722a3daafe3b4186f6b6457e09190a35050565b6040516001600160a01b0383811660248301526044820183905261056891859182169063a9059cbb906064015b604051602081830303815290604052915060e01b6020820180516001600160e01b038381831617835250505050610da0565b600260015403610d6057604051633ee5aeb560e01b815260040160405180910390fd5b6002600155565b6040516001600160a01b038481166024830152838116604483015260648201839052610c5b9186918216906323b872dd90608401610d0b565b600080602060008451602086016000885af180610dc3576040513d6000823e3d81fd5b50506000513d91508115610ddb578060011415610de8565b6001600160a01b0384163b155b15610c5b57604051635274afe760e01b81526001600160a01b03851660048201526024016104ca565b6001600160a01b0381168114610b4657600080fd5b60008060408385031215610e3957600080fd5b823591506020830135610e4b81610e11565b809150509250929050565b600060208284031215610e6857600080fd5b8135610e7381610e11565b9392505050565b600060208284031215610e8c57600080fd5b5035919050565b602080825282518282018190526000919060409081850190868401855b82811015610f2a57815180518552868101516001600160a01b0390811688870152868201511686860152606080820151908601526080808201519086015260a0808201519086015260c0808201519086015260e0808201519086015261010090810151908501526101209093019290850190600101610eb0565b5091979650505050505050565b60008060408385031215610f4a57600080fd5b8235610f5581610e11565b946020939093013593505050565b600080600060608486031215610f7857600080fd5b833592506020840135610f8a81610e11565b929592945050506040919091013590565b60008060408385031215610fae57600080fd5b50508035926020909101359150565b60008060008060008060c08789031215610fd657600080fd5b863595506020870135610fe881610e11565b94506040870135610ff881610e11565b959894975094956060810135955060808101359460a0909101359350915050565b6000806000806080858703121561102f57600080fd5b84359350602085013561104181610e11565b925060408501359150606085013561105881610e11565b939692955090935050565b634e487b7160e01b600052601160045260246000fd5b808201808211156102cf576102cf611063565b60008060008060008060008060006101208a8c0312156110ab57600080fd5b8951985060208a01516110bd81610e11565b60408b015190985060ff811681146110d457600080fd5b60608b015160808c0151919850965080151581146110f157600080fd5b8095505060a08a0151935060c08a0151925060e08a015191506101008a015190509295985092959850929598565b80820281158282048414176102cf576102cf611063565b60008261115357634e487b7160e01b600052601260045260246000fd5b500490565b818103818111156102cf576102cf611063565b818103600083128015838313168383128216171561118b5761118b611063565b5092915050565b6000600182016111a4576111a4611063565b5060010190565b80820182811260008312801582168215821617156111cb576111cb611063565b50509291505056fea26469706673582212202ecf1b1876d1d0fc15860dc3c30d3718eaaed4eca5e047330477c5c7d70ae97a64736f6c63430008140033",
  "linkReferences": {},
  "deployedLinkReferences": {}
}