{"contracts/StakingPool.sol":{"StakingPool":{"abi":[{"inputs":[{"internalType":"address","name":"_stakingToken","type":"address"}],"stateMutability":"nonpayable","type":"constructor"},{"inputs":[{"internalType":"address","name":"owner","type":"address"}],"name":"OwnableInvalidOwner","type":"error"},{"inputs":[{"internalType":"address","name":"account","type":"address"}],"name":"OwnableUnauthorizedAccount","type":"error"},{"inputs":[],"name":"ReentrancyGuardReentrantCall","type":"error"},{"inputs":[{"internalType":"address","name":"token","type":"address"}],"name":"SafeERC20FailedOperation","type":"error"},{"anonymous":false,"inputs":[{"indexed":true,"internalType":"address","name":"previousOwner","type":"address"},{"indexed":true,"internalType":"address","name":"newOwner","type":"address"}],"name":"OwnershipTransferred","type":"event"},{"anonymous":false,"inputs":[{"indexed":true,"internalType":"bytes32","name":"agentId","type":"bytes32"},{"indexed":false,"internalType":"int256","name":"profitAmount","type":"int256"},{"indexed":false,"internalType":"uint256","name":"rewardPerShare","type":"uint256"}],"name":"ProfitDistributed","type":"event"},{"anonymous":false,"inputs":[{"indexed":true,"internalType":"address","name":"staker","type":"address"},{"indexed":true,"internalType":"bytes32","name":"agentId","type":"bytes32"},{"indexed":false,"internalType":"uint256","name":"amount","type":"uint256"}],"name":"RewardsClaimed","type":"event"},{"anonymous":false,"inputs":[{"indexed":true,"internalType":"address","name":"staker","type":"address"},{"indexed":true,"internalType":"bytes32","name":"agentId","type":"bytes32"},{"indexed":false,"internalType":"uint256","name":"amount","type":"uint256"}],"name":"Staked","type":"event"},{"anonymous":false,"inputs":[{"indexed":true,"internalType":"address","name":"staker","type":"address"},{"indexed":true,"internalType":"bytes32","name":"agentId","type":"bytes32"},{"indexed":false,"internalType":"uint256","name":"amount","type":"uint256"}],"name":"Unstaked","type":"event"},{"inputs":[{"internalType":"uint256","name":"","type":"uint256"}],"name":"activeAgents","outputs":[{"internalType":"bytes32","name":"","type":"bytes32"}],"stateMutability":"view","type":"function"},{"inputs":[{"internalType":"bytes32","name":"","type":"bytes32"}],"name":"agentPools","outputs":[{"internalType":"bytes32","name":"agentId","type":"bytes32"},{"internalType":"uint256","name":"totalStaked","type":"uint256"},{"internalType":"int256","name":"totalProfitGenerated","type":"int256"},{"internalType":"uint256","name":"rewardPerShare","type":"uint256"},{"internalType":"bool","name":"isActive","type":"bool"}],"stateMutability":"view","type":"function"},{"inputs":[{"internalType":"bytes32","name":"agentId","type":"bytes32"}],"name":"claimRewards","outputs":[],"stateMutability":"nonpayable","type":"function"},{"inputs":[{"internalType":"bytes32","name":"agentId","type":"bytes32"}],"name":"createAgentPool","outputs":[],"stateMutability":"nonpayable","type":"function"},{"inputs":[{"internalType":"bytes32","name":"agentId","type":"bytes32"}],"name":"deactivatePool","outputs":[],"stateMutability":"nonpayable","type":"function"},{"inputs":[{"internalType":"bytes32","name":"agentId","type":"bytes32"},{"internalType":"int256","name":"profitAmount","type":"int256"}],"name":"distributeProfits","outputs":[],"stateMutability":"nonpayable","type":"function"},{"inputs":[{"internalType":"bytes32","name":"agentId","type":"bytes32"}],"name":"getPoolStats","outputs":[{"internalType":"uint256","name":"totalStaked","type":"uint256"},{"internalType":"int256","name":"totalProfit","type":"int256"},{"internalType":"uint256","name":"rewardPerShare","type":"uint256"},{"internalType":"bool","name":"isActive","type":"bool"}],"stateMutability":"view","type":"function"},{"inputs":[{"internalType":"bytes32","name":"agentId","type":"bytes32"},{"internalType":"address","name":"staker","type":"address"}],"name":"getStakeInfo","outputs":[{"internalType":"uint256","name":"stakedAmount","type":"uint256"},{"internalType":"uint256","name":"pendingRewards","type":"uint256"},{"internalType":"uint256","name":"stakedAt","type":"uint256"}],"stateMutability":"view","type":"function"},{"inputs":[],"name":"owner","outputs":[{"internalType":"address","name":"","type":"address"}],"stateMutability":"view","type":"function"},{"inputs":[],"name":"protocolFeePercent","outputs":[{"internalType":"uint256","name":"","type":"uint256"}],"stateMutability":"view","type":"function"},{"inputs":[],"name":"renounceOwnership","outputs":[],"stateMutability":"nonpayable","type":"function"},{"inputs":[{"internalType":"uint256","name":"_feePercent","type":"uint256"}],"name":"setProtocolFee","outputs":[],"stateMutability":"nonpayable","type":"function"},{"inputs":[{"internalType":"bytes32","name":"agentId","type":"bytes32"},{"internalType":"uint256","name":"amount","type":"uint256"}],"name":"stake","outputs":[],"stateMutability":"nonpayable","type":"function"},{"inputs":[{"internalType":"bytes32","name":"","type":"bytes32"},{"internalType":"address","name":"","type":"address"}],"name":"stakes","outputs":[{"internalType":"uint256","name":"amount","type":"uint256"},{"internalType":"uint256","name":"stakedAt","type":"uint256"},{"internalType":"uint256","name":"lastClaimAt","type":"uint256"},{"internalType":"uint256","name":"rewardsAccrued","type":"uint256"}],"stateMutability":"view","type":"function"},{"inputs":[],"name":"stakingToken","outputs":[{"internalType":"contract IERC20","name":"","type":"address"}],"stateMutability":"view","type":"function"},{"inputs":[],"name":"totalValueLocked","outputs":[{"internalType":"uint256","name":"","type":"uint256"}],"stateMutability":"view","type":"function"},{"inputs":[{"internalType":"address","name":"newOwner","type":"address"}],"name":"transferOwnership","outputs":[],"stateMutability":"nonpayable","type":"function"},{"inputs":[{"internalType":"bytes32","name":"agentId","type":"bytes32"},{"internalType":"uint256","name":"amount","type":"uint256"}],"name":"unstake","outputs":[],"stateMutability":"nonpayable","type":"function"}],"evm":{"bytecode":{"linkReferences":{},"object":"60806040526101f460075534801561001657600080fd5b50604051611047380380611047833981016040819052610035916100de565b338061005b57604051631e4fbdf760e01b81526000600482015260240160405180910390fd5b6100648161008e565b5060018055600280546001600160a01b0319166001600160a01b039290921691909117905561010e565b600080546001600160a01b038381166001600160a01b0319831681178455604051919092169283917f8be0079c531659141344cd1fd0a4f28419497f9722a3daafe3b4186f6b6457e09190a35050565b6000602082840312156100f057600080fd5b81516001600160a01b038116811461010757600080fd5b9392505050565b610f2a8061011d6000396000f3fe608060405234801561001057600080fd5b50600436106101165760003560e01c80638caa5230116100a2578063d6e6eb9f11610071578063d6e6eb9f14610368578063d9d9785914610371578063ec18154e14610384578063f2fde38b1461038d578063f94e4c85146103a057600080fd5b80638caa5230146102795780638da5cb5b1461028c578063a7b9828f1461029d578063b6534d90146102fd57600080fd5b8063715018a6116100e9578063715018a61461019757806371b6aaac1461019f57806372f702f3146102285780637790ddc614610253578063787dce3d1461026657600080fd5b806316ae261d1461011b5780634aa7a63b14610130578063520d5e25146101435780636412449114610169575b600080fd5b61012e610129366004610dac565b6103b3565b005b61012e61013e366004610dce565b6104e2565b610156610151366004610dce565b6105d5565b6040519081526020015b60405180910390f35b61017c610177366004610e03565b6105f6565b60408051938452602084019290925290820152606001610160565b61012e6106c6565b6102066101ad366004610dce565b600090815260036020818152604092839020835160a0810185528154815260018201549281018390526002820154948101859052928101546060840181905260049091015460ff16151560809093018390529093909190565b6040805194855260208501939093529183015215156060820152608001610160565b60025461023b906001600160a01b031681565b6040516001600160a01b039091168152602001610160565b61012e610261366004610dce565b6106da565b61012e610274366004610dce565b6106f8565b61012e610287366004610dac565b610746565b6000546001600160a01b031661023b565b6102dd6102ab366004610e03565b600460209081526000928352604080842090915290825290208054600182015460028301546003909301549192909184565b604080519485526020850193909352918301526060820152608001610160565b61033e61030b366004610dce565b60036020819052600091825260409091208054600182015460028301549383015460049093015491939092909160ff1685565b6040805195865260208601949094529284019190915260608301521515608082015260a001610160565b61015660075481565b61012e61037f366004610dce565b6108ba565b61015660065481565b61012e61039b366004610e2f565b6108dd565b61012e6103ae366004610dac565b610918565b6103bb610ad4565b60008281526004602090815260408083203384529091529020805482111561041f5760405162461bcd60e51b8152602060048201526012602482015271496e73756666696369656e74207374616b6560701b60448201526064015b60405180910390fd5b60008381526003602052604090206104378433610afe565b8282600001600082825461044b9190610e67565b92505081905550828160010160008282546104669190610e67565b92505081905550826006600082825461047f9190610e67565b909155505060025461049b906001600160a01b03163385610c1b565b604051838152849033907f2774090e627869eaafcd1e79e291786f7d2bcc2f62467b75effa5739ac1df914906020015b60405180910390a350506104de60018055565b5050565b6104ea610c7f565b6000818152600360205260409020541561053c5760405162461bcd60e51b8152602060048201526013602482015272506f6f6c20616c72656164792065786973747360681b6044820152606401610416565b6040805160a08101825282815260006020808301828152838501838152606085018481526001608087018181528987526003958690529786209651875592518684015590516002860155519184019190915592516004909201805460ff19169215159290921790915560058054928301815590527f036b6384b5eca791c62761152d0c79bb0604c104a5fb6f4eb0703f3154bb3db00155565b600581815481106105e557600080fd5b600091825260209091200154905081565b60008281526004602081815260408084206001600160a01b038616855282528084208151608080820184528254825260018084015483870152600280850154848701526003948501546060808601919091528b8a52858852868a20875160a081018952815481529381015498840198909852908701549582019590955292850154938301849052939094015460ff161515928101929092528251939283929091670de0b6b3a7640000906106aa9087610e80565b6106b49190610e97565b93508160200151925050509250925092565b6106ce610c7f565b6106d86000610cac565b565b6106e2610ad4565b6106ec8133610afe565b6106f560018055565b50565b610700610c7f565b6103e88111156107415760405162461bcd60e51b815260206004820152600c60248201526b08ccaca40e8dede40d0d2ced60a31b6044820152606401610416565b600755565b61074e610ad4565b600081116107935760405162461bcd60e51b81526020600482015260126024820152710416d6f756e74206d757374206265203e20360741b6044820152606401610416565b6000828152600360205260409020600481015460ff166107e75760405162461bcd60e51b815260206004820152600f60248201526e506f6f6c206e6f742061637469766560881b6044820152606401610416565b6002546107ff906001600160a01b0316333085610cfc565b60008381526004602090815260408083203384529091529020805415610829576108298433610afe565b8281600001600082825461083d9190610eb9565b9091555050426001808301829055600283019190915582018054849190600090610868908490610eb9565b9250508190555082600660008282546108819190610eb9565b9091555050604051838152849033907fb46febe4efbbb5c019390b465ed6683766acdecdef421175b285b18932c27e2c906020016104cb565b6108c2610c7f565b6000908152600360205260409020600401805460ff19169055565b6108e5610c7f565b6001600160a01b03811661090f57604051631e4fbdf760e01b815260006004820152602401610416565b6106f581610cac565b610920610c7f565b600081136109705760405162461bcd60e51b815260206004820152601760248201527f50726f666974206d75737420626520706f7369746976650000000000000000006044820152606401610416565b6000828152600360205260409020600481015460ff166109c45760405162461bcd60e51b815260206004820152600f60248201526e506f6f6c206e6f742061637469766560881b6044820152606401610416565b6000816001015411610a055760405162461bcd60e51b815260206004820152600a6024820152694e6f207374616b65727360b01b6044820152606401610416565b600061271060075484610a189190610e80565b610a229190610e97565b90506000610a308285610e67565b6001840154909150610a4a82670de0b6b3a7640000610e80565b610a549190610e97565b836003016000828254610a679190610eb9565b9250508190555083836002016000828254610a829190610ecc565b9091555050600383015460405186917fc8e637ac3584d8fa30f2000b2f4221d5514fe4aa9f59ba57050436983b8012b091610ac591888252602082015260400190565b60405180910390a25050505050565b600260015403610af757604051633ee5aeb560e01b815260040160405180910390fd5b6002600155565b60008281526004602090815260408083206001600160a01b038516845290915290208054610b595760405162461bcd60e51b81526020600482015260086024820152674e6f207374616b6560c01b6044820152606401610416565b60008381526003602081905260408220908101548354919291670de0b6b3a764000091610b8591610e80565b610b8f9190610e97565b90508015610c145780836003016000828254610bab9190610eb9565b90915550504260028085019190915554610bcf906001600160a01b03168583610c1b565b84846001600160a01b03167f05a04f6339c8b68ec7067482fb9dc22d02081714e02e4fd0f56f4e3d0dd9b4e583604051610c0b91815260200190565b60405180910390a35b5050505050565b6040516001600160a01b03838116602483015260448201839052610c7a91859182169063a9059cbb906064015b604051602081830303815290604052915060e01b6020820180516001600160e01b038381831617835250505050610d3b565b505050565b6000546001600160a01b031633146106d85760405163118cdaa760e01b8152336004820152602401610416565b600080546001600160a01b038381166001600160a01b0319831681178455604051919092169283917f8be0079c531659141344cd1fd0a4f28419497f9722a3daafe3b4186f6b6457e09190a35050565b6040516001600160a01b038481166024830152838116604483015260648201839052610d359186918216906323b872dd90608401610c48565b50505050565b600080602060008451602086016000885af180610d5e576040513d6000823e3d81fd5b50506000513d91508115610d76578060011415610d83565b6001600160a01b0384163b155b15610d3557604051635274afe760e01b81526001600160a01b0385166004820152602401610416565b60008060408385031215610dbf57600080fd5b50508035926020909101359150565b600060208284031215610de057600080fd5b5035919050565b80356001600160a01b0381168114610dfe57600080fd5b919050565b60008060408385031215610e1657600080fd5b82359150610e2660208401610de7565b90509250929050565b600060208284031215610e4157600080fd5b610e4a82610de7565b9392505050565b634e487b7160e01b600052601160045260246000fd5b81810381811115610e7a57610e7a610e51565b92915050565b8082028115828204841417610e7a57610e7a610e51565b600082610eb457634e487b7160e01b600052601260045260246000fd5b500490565b80820180821115610e7a57610e7a610e51565b8082018281126000831280158216821582161715610eec57610eec610e51565b50509291505056fea26469706673582212200723989787a31a73d993601cae2f8ec2209ae39d4b4971cfa7089c83fe2e24ad64736f6c63430008140033","opcodes":"PUSH1 0x80 PUSH1 0x40 MSTORE PUSH2 0x1F4 PUSH1 0x7 SSTORE CALLVALUE DUP1 ISZERO PUSH2 0x16 JUMPI PUSH1 0x0 DUP1 REVERT JUMPDEST POP PUSH1 0x40 MLOAD PUSH2 0x1047 CODESIZE SUB DUP1 PUSH2 0x1047 DUP4 CODECOPY DUP2 ADD PUSH1 0x40 DUP2 SWAP1 MSTORE PUSH2 0x35 SWAP2 PUSH2 0xDE JUMP JUMPDEST CALLER DUP1 PUSH2 0x5B JUMPI PUSH1 0x40 MLOAD PUSH4 0x1E4FBDF7 PUSH1 0xE0 SHL DUP2 MSTORE PUSH1 0x0 PUSH1 0x4 DUP3 ADD MSTORE PUSH1 0x24 ADD PUSH1 0x40 MLOAD DUP1 SWAP2 SUB SWAP1 REVERT JUMPDEST PUSH2 0x64 DUP2 PUSH2 0x8E JUMP JUMPDEST POP PUSH1 0x1 DUP1 SSTORE PUSH1 0x2 DUP1 SLOAD PUSH1 0x1 PUSH1 0x1 PUSH1 0xA0 SHL SUB NOT AND PUSH1 0x1 PUSH1 0x1 PUSH1 0xA0 SHL SUB SWAP3 SWAP1 SWAP3 AND SWAP2 SWAP1 SWAP2 OR SWAP1 SSTORE PUSH2 0x10E JUMP JUMPDEST PUSH1 0x0 DUP1 SLOAD PUSH1 0x1 PUSH1 0x1 PUSH1 0xA0 SHL SUB DUP4 DUP2 AND PUSH1 0x1 PUSH1 0x1 PUSH1 0xA0 SHL SUB NOT DUP4 AND DUP2 OR DUP5 SSTORE PUSH1 0x40 MLOAD SWAP2 SWAP1 SWAP3 AND SWAP3 DUP4 SWAP2 PUSH32 0x8BE0079C531659141344CD1FD0A4F28419497F9722A3DAAFE3B4186F6B6457E0 SWAP2 SWAP1 LOG3 POP POP JUMP JUMPDEST PUSH1 0x0 PUSH1 0x20 DUP3 DUP5 SUB SLT ISZERO PUSH2 0xF0 JUMPI PUSH1 0x0 DUP1 REVERT JUMPDEST DUP2 MLOAD PUSH1 0x1 PUSH1 0x1 PUSH1 0xA0 SHL SUB DUP2 AND DUP2 EQ PUSH2 0x107 JUMPI PUSH1 0x0 DUP1 REVERT JUMPDEST SWAP4 SWAP3 POP POP POP JUMP JUMPDEST PUSH2 0xF2A DUP1 PUSH2 0x11D PUSH1 0x0 CODECOPY PUSH1 0x0 RETURN INVALID PUSH1 0x80 PUSH1 0x40 MSTORE CALLVALUE DUP1 ISZERO PUSH2 0x10 JUMPI PUSH1 0x0 DUP1 REVERT JUMPDEST POP PUSH1 0x4 CALLDATASIZE LT PUSH2 0x116 JUMPI PUSH1 0x0 CALLDATALOAD PUSH1 0xE0 SHR DUP1 PUSH4 0x8CAA5230 GT PUSH2 0xA2 JUMPI DUP1 PUSH4 0xD6E6EB9F GT PUSH2 0x71 JUMPI DUP1 PUSH4 0xD6E6EB9F EQ PUSH2 0x368 JUMPI DUP1 PUSH4 0xD9D97859 EQ PUSH2 0x371 JUMPI DUP1 PUSH4 0xEC18154E EQ PUSH2 0x384 JUMPI DUP1 PUSH4 0xF2FDE38B EQ PUSH2 0x38D JUMPI DUP1 PUSH4 0xF94E4C85 EQ PUSH2 0x3A0 JUMPI PUSH1 0x0 DUP1 REVERT JUMPDEST DUP1 PUSH4 0x8CAA5230 EQ PUSH2 0x279 JUMPI DUP1 PUSH4 0x8DA5CB5B EQ PUSH2 0x28C JUMPI DUP1 PUSH4 0xA7B9828F EQ PUSH2 0x29D JUMPI DUP1 PUSH4 0xB6534D90 EQ PUSH2 0x2FD JUMPI PUSH1 0x0 DUP1 REVERT JUMPDEST DUP1 PUSH4 0x715018A6 GT PUSH2 0xE9 JUMPI DUP1 PUSH4 0x715018A6 EQ PUSH2 0x197 JUMPI DUP1 PUSH4 0x71B6AAAC EQ PUSH2 0x19F JUMPI DUP1 PUSH4 0x72F702F3 EQ PUSH2 0x228 JUMPI DUP1 PUSH4 0x7790DDC6 EQ PUSH2 0x253 JUMPI DUP1 PUSH4 0x787DCE3D EQ PUSH2 0x266 JUMPI PUSH1 0x0 DUP1 REVERT JUMPDEST DUP1 PUSH4 0x16AE261D EQ PUSH2 0x11B JUMPI DUP1 PUSH4 0x4AA7A63B EQ PUSH2 0x130 JUMPI DUP1 PUSH4 0x520D5E25 EQ PUSH2 0x143 JUMPI DUP1 PUSH4 0x64124491 EQ PUSH2 0x169 JUMPI JUMPDEST PUSH1 0x0 DUP1 REVERT JUMPDEST PUSH2 0x12E PUSH2 0x129 CALLDATASIZE PUSH1 0x4 PUSH2 0xDAC JUMP JUMPDEST PUSH2 0x3B3 JUMP JUMPDEST STOP JUMPDEST PUSH2 0x12E PUSH2 0x13E CALLDATASIZE PUSH1 0x4 PUSH2 0xDCE JUMP JUMPDEST PUSH2 0x4E2 JUMP JUMPDEST PUSH2 0x156 PUSH2 0x151 CALLDATASIZE PUSH1 0x4 PUSH2 0xDCE JUMP JUMPDEST PUSH2 0x5D5 JUMP JUMPDEST PUSH1 0x40 MLOAD SWAP1 DUP2 MSTORE PUSH1 0x20 ADD JUMPDEST PUSH1 0x40 MLOAD DUP1 SWAP2 SUB SWAP1 RETURN JUMPDEST PUSH2 0x17C PUSH2 0x177 CALLDATASIZE PUSH1 0x4 PUSH2 0xE03 JUMP JUMPDEST PUSH2 0x5F6 JUMP JUMPDEST PUSH1 0x40 DUP1 MLOAD SWAP4 DUP5 MSTORE PUSH1 0x20 DUP5 ADD SWAP3 SWAP1 SWAP3 MSTORE SWAP1 DUP3 ADD MSTORE PUSH1 0x60 ADD PUSH2 0x160 JUMP JUMPDEST PUSH2 0x12E PUSH2 0x6C6 JUMP JUMPDEST PUSH2 0x206 PUSH2 0x1AD CALLDATASIZE PUSH1 0x4 PUSH2 0xDCE JUMP JUMPDEST PUSH1 0x0 SWAP1 DUP2 MSTORE PUSH1 0x3 PUSH1 0x20 DUP2 DUP2 MSTORE PUSH1 0x40 SWAP3 DUP4 SWAP1 KECCAK256 DUP4 MLOAD PUSH1 0xA0 DUP2 ADD DUP6 MSTORE DUP2 SLOAD DUP2 MSTORE PUSH1 0x1 DUP3 ADD SLOAD SWAP3 DUP2 ADD DUP4 SWAP1 MSTORE PUSH1 0x2 DUP3 ADD SLOAD SWAP5 DUP2 ADD DUP6 SWAP1 MSTORE SWAP3 DUP2 ADD SLOAD PUSH1 0x60 DUP5 ADD DUP2 SWAP1 MSTORE PUSH1 0x4 SWAP1 SWAP2 ADD SLOAD PUSH1 0xFF AND ISZERO ISZERO PUSH1 0x80 SWAP1 SWAP4 ADD DUP4 SWAP1 MSTORE SWAP1 SWAP4 SWAP1 SWAP2 SWAP1 JUMP JUMPDEST PUSH1 0x40 DUP1 MLOAD SWAP5 DUP6 MSTORE PUSH1 0x20 DUP6 ADD SWAP4 SWAP1 SWAP4 MSTORE SWAP2 DUP4 ADD MSTORE ISZERO ISZERO PUSH1 0x60 DUP3 ADD MSTORE PUSH1 0x80 ADD PUSH2 0x160 JUMP JUMPDEST PUSH1 0x2 SLOAD PUSH2 0x23B SWAP1 PUSH1 0x1 PUSH1 0x1 PUSH1 0xA0 SHL SUB AND DUP2 JUMP JUMPDEST PUSH1 0x40 MLOAD PUSH1 0x1 PUSH1 0x1 PUSH1 0xA0 SHL SUB SWAP1 SWAP2 AND DUP2 MSTORE PUSH1 0x20 ADD PUSH2 0x160 JUMP JUMPDEST PUSH2 0x12E PUSH2 0x261 CALLDATASIZE PUSH1 0x4 PUSH2 0xDCE JUMP JUMPDEST PUSH2 0x6DA JUMP JUMPDEST PUSH2 0x12E PUSH2 0x274 CALLDATASIZE PUSH1 0x4 PUSH2 0xDCE JUMP JUMPDEST PUSH2 0x6F8 JUMP JUMPDEST PUSH2 0x12E PUSH2 0x287 CALLDATASIZE PUSH1 0x4 PUSH2 0xDAC JUMP JUMPDEST PUSH2 0x746 JUMP JUMPDEST PUSH1 0x0 SLOAD PUSH1 0x1 PUSH1 0x1 PUSH1 0xA0 SHL SUB AND PUSH2 0x23B JUMP JUMPDEST PUSH2 0x2DD PUSH2 0x2AB CALLDATASIZE PUSH1 0x4 PUSH2 0xE03 JUMP JUMPDEST PUSH1 0x4 PUSH1 0x20 SWAP1 DUP2 MSTORE PUSH1 0x0 SWAP3 DUP4 MSTORE PUSH1 0x40 DUP1 DUP5 KECCAK256 SWAP1 SWAP2 MSTORE SWAP1 DUP3 MSTORE SWAP1 KECCAK256 DUP1 SLOAD PUSH1 0x1 DUP3 ADD SLOAD PUSH1 0x2 DUP4 ADD SLOAD PUSH1 0x3 SWAP1 SWAP4 ADD SLOAD SWAP2 SWAP3 SWAP1 SWAP2 DUP5 JUMP JUMPDEST PUSH1 0x40 DUP1 MLOAD SWAP5 DUP6 MSTORE PUSH1 0x20 DUP6 ADD SWAP4 SWAP1 SWAP4 MSTORE SWAP2 DUP4 ADD MSTORE PUSH1 0x60 DUP3 ADD MSTORE PUSH1 0x80 ADD PUSH2 0x160 JUMP JUMPDEST PUSH2 0x33E PUSH2 0x30B CALLDATASIZE PUSH1 0x4 PUSH2 0xDCE JUMP JUMPDEST PUSH1 0x3 PUSH1 0x20 DUP2 SWAP1 MSTORE PUSH1 0x0 SWAP2 DUP3 MSTORE PUSH1 0x40 SWAP1 SWAP2 KECCAK256 DUP1 SLOAD PUSH1 0x1 DUP3 ADD SLOAD PUSH1 0x2 DUP4 ADD SLOAD SWAP4 DUP4 ADD SLOAD PUSH1 0x4 SWAP1 SWAP4 ADD SLOAD SWAP2 SWAP4 SWAP1 SWAP3 SWAP1 SWAP2 PUSH1 0xFF AND DUP6 JUMP JUMPDEST PUSH1 0x40 DUP1 MLOAD SWAP6 DUP7 MSTORE PUSH1 0x20 DUP7 ADD SWAP5 SWAP1 SWAP5 MSTORE SWAP3 DUP5 ADD SWAP2 SWAP1 SWAP2 MSTORE PUSH1 0x60 DUP4 ADD MSTORE ISZERO ISZERO PUSH1 0x80 DUP3 ADD MSTORE PUSH1 0xA0 ADD PUSH2 0x160 JUMP JUMPDEST PUSH2 0x156 PUSH1 0x7 SLOAD DUP2 JUMP JUMPDEST PUSH2 0x12E PUSH2 0x37F CALLDATASIZE PUSH1 0x4 PUSH2 0xDCE JUMP JUMPDEST PUSH2 0x8BA JUMP JUMPDEST PUSH2 0x156 PUSH1 0x6 SLOAD DUP2 JUMP JUMPDEST PUSH2 0x12E PUSH2 0x39B CALLDATASIZE PUSH1 0x4 PUSH2 0xE2F JUMP JUMPDEST PUSH2 0x8DD JUMP JUMPDEST PUSH2 0x12E PUSH2 0x3AE CALLDATASIZE PUSH1 0x4 PUSH2 0xDAC JUMP JUMPDEST PUSH2 0x918 JUMP JUMPDEST PUSH2 0x3BB PUSH2 0xAD4 JUMP JUMPDEST PUSH1 0x0 DUP3 DUP2 MSTORE PUSH1 0x4 PUSH1 0x20 SWAP1 DUP2 MSTORE PUSH1 0x40 DUP1 DUP4 KECCAK256 CALLER DUP5 MSTORE SWAP1 SWAP2 MSTORE SWAP1 KECCAK256 DUP1 SLOAD DUP3 GT ISZERO PUSH2 0x41F JUMPI PUSH1 0x40 MLOAD PUSH3 0x461BCD PUSH1 0xE5 SHL DUP2 MSTORE PUSH1 0x20 PUSH1 0x4 DUP3 ADD MSTORE PUSH1 0x12 PUSH1 0x24 DUP3 ADD MSTORE PUSH18 0x496E73756666696369656E74207374616B65 PUSH1 0x70 SHL PUSH1 0x44 DUP3 ADD MSTORE PUSH1 0x64 ADD JUMPDEST PUSH1 0x40 MLOAD DUP1 SWAP2 SUB SWAP1 REVERT JUMPDEST PUSH1 0x0 DUP4 DUP2 MSTORE PUSH1 0x3 PUSH1 0x20 MSTORE PUSH1 0x40 SWAP1 KECCAK256 PUSH2 0x437 DUP5 CALLER PUSH2 0xAFE JUMP JUMPDEST DUP3 DUP3 PUSH1 0x0 ADD PUSH1 0x0 DUP3 DUP3 SLOAD PUSH2 0x44B SWAP2 SWAP1 PUSH2 0xE67 JUMP JUMPDEST SWAP3 POP POP DUP2 SWAP1 SSTORE POP DUP3 DUP2 PUSH1 0x1 ADD PUSH1 0x0 DUP3 DUP3 SLOAD PUSH2 0x466 SWAP2 SWAP1 PUSH2 0xE67 JUMP JUMPDEST SWAP3 POP POP DUP2 SWAP1 SSTORE POP DUP3 PUSH1 0x6 PUSH1 0x0 DUP3 DUP3 SLOAD PUSH2 0x47F SWAP2 SWAP1 PUSH2 0xE67 JUMP JUMPDEST SWAP1 SWAP2 SSTORE POP POP PUSH1 0x2 SLOAD PUSH2 0x49B SWAP1 PUSH1 0x1 PUSH1 0x1 PUSH1 0xA0 SHL SUB AND CALLER DUP6 PUSH2 0xC1B JUMP JUMPDEST PUSH1 0x40 MLOAD DUP4 DUP2 MSTORE DUP5 SWAP1 CALLER SWAP1 PUSH32 0x2774090E627869EAAFCD1E79E291786F7D2BCC2F62467B75EFFA5739AC1DF914 SWAP1 PUSH1 0x20 ADD JUMPDEST PUSH1 0x40 MLOAD DUP1 SWAP2 SUB SWAP1 LOG3 POP POP PUSH2 0x4DE PUSH1 0x1 DUP1 SSTORE JUMP JUMPDEST POP POP JUMP JUMPDEST PUSH2 0x4EA PUSH2 0xC7F JUMP JUMPDEST PUSH1 0x0 DUP2 DUP2 MSTORE PUSH1 0x3 PUSH1 0x20 MSTORE PUSH1 0x40 SWAP1 KECCAK256 SLOAD ISZERO PUSH2 0x53C JUMPI PUSH1 0x40 MLOAD PUSH3 0x461BCD PUSH1 0xE5 SHL DUP2 MSTORE PUSH1 0x20 PUSH1 0x4 DUP3 ADD MSTORE PUSH1 0x13 PUSH1 0x24 DUP3 ADD MSTORE PUSH19 0x506F6F6C20616C726561647920657869737473 PUSH1 0x68 SHL PUSH1 0x44 DUP3 ADD MSTORE PUSH1 0x64 ADD PUSH2 0x416 JUMP JUMPDEST PUSH1 0x40 DUP1 MLOAD PUSH1 0xA0 DUP2 ADD DUP3 MSTORE DUP3 DUP2 MSTORE PUSH1 0x0 PUSH1 0x20 DUP1 DUP4 ADD DUP3 DUP2 MSTORE DUP4 DUP6 ADD DUP4 DUP2 MSTORE PUSH1 0x60 DUP6 ADD DUP5 DUP2 MSTORE PUSH1 0x1 PUSH1 0x80 DUP8 ADD DUP2 DUP2 MSTORE DUP10 DUP8 MSTORE PUSH1 0x3 SWAP6 DUP7 SWAP1 MSTORE SWAP8 DUP7 KECCAK256 SWAP7 MLOAD DUP8 SSTORE SWAP3 MLOAD DUP7 DUP5 ADD SSTORE SWAP1 MLOAD PUSH1 0x2 DUP7 ADD SSTORE MLOAD SWAP2 DUP5 ADD SWAP2 SWAP1 SWAP2 SSTORE SWAP3 MLOAD PUSH1 0x4 SWAP1 SWAP3 ADD DUP1 SLOAD PUSH1 0xFF NOT AND SWAP3 ISZERO ISZERO SWAP3 SWAP1 SWAP3 OR SWAP1 SWAP2 SSTORE PUSH1 0x5 DUP1 SLOAD SWAP3 DUP4 ADD DUP2 SSTORE SWAP1 MSTORE PUSH32 0x36B6384B5ECA791C62761152D0C79BB0604C104A5FB6F4EB0703F3154BB3DB0 ADD SSTORE JUMP JUMPDEST PUSH1 0x5 DUP2 DUP2 SLOAD DUP2 LT PUSH2 0x5E5 JUMPI PUSH1 0x0 DUP1 REVERT JUMPDEST PUSH1 0x0 SWAP2 DUP3 MSTORE PUSH1 0x20 SWAP1 SWAP2 KECCAK256 ADD SLOAD SWAP1 POP DUP2 JUMP JUMPDEST PUSH1 0x0 DUP3 DUP2 MSTORE PUSH1 0x4 PUSH1 0x20 DUP2 DUP2 MSTORE PUSH1 0x40 DUP1 DUP5 KECCAK256 PUSH1 0x1 PUSH1 0x1 PUSH1 0xA0 SHL SUB DUP7 AND DUP6 MSTORE DUP3 MSTORE DUP1 DUP5 KECCAK256 DUP2 MLOAD PUSH1 0x80 DUP1 DUP3 ADD DUP5 MSTORE DUP3 SLOAD DUP3 MSTORE PUSH1 0x1 DUP1 DUP5 ADD SLOAD DUP4 DUP8 ADD MSTORE PUSH1 0x2 DUP1 DUP6 ADD SLOAD DUP5 DUP8 ADD MSTORE PUSH1 0x3 SWAP5 DUP6 ADD SLOAD PUSH1 0x60 DUP1 DUP7 ADD SWAP2 SWAP1 SWAP2 MSTORE DUP12 DUP11 MSTORE DUP6 DUP9 MSTORE DUP7 DUP11 KECCAK256 DUP8 MLOAD PUSH1 0xA0 DUP2 ADD DUP10 MSTORE DUP2 SLOAD DUP2 MSTORE SWAP4 DUP2 ADD SLOAD SWAP9 DUP5 ADD SWAP9 SWAP1 SWAP9 MSTORE SWAP1 DUP8 ADD SLOAD SWAP6 DUP3 ADD SWAP6 SWAP1 SWAP6 MSTORE SWAP3 DUP6 ADD SLOAD SWAP4 DUP4 ADD DUP5 SWAP1 MSTORE SWAP4 SWAP1 SWAP5 ADD SLOAD PUSH1 0xFF AND ISZERO ISZERO SWAP3 DUP2 ADD SWAP3 SWAP1 SWAP3 MSTORE DUP3 MLOAD SWAP4 SWAP3 DUP4 SWAP3 SWAP1 SWAP2 PUSH8 0xDE0B6B3A7640000 SWAP1 PUSH2 0x6AA SWAP1 DUP8 PUSH2 0xE80 JUMP JUMPDEST PUSH2 0x6B4 SWAP2 SWAP1 PUSH2 0xE97 JUMP JUMPDEST SWAP4 POP DUP2 PUSH1 0x20 ADD MLOAD SWAP3 POP POP POP SWAP3 POP SWAP3 POP SWAP3 JUMP JUMPDEST PUSH2 0x6CE PUSH2 0xC7F JUMP JUMPDEST PUSH2 0x6D8 PUSH1 0x0 PUSH2 0xCAC JUMP JUMPDEST JUMP JUMPDEST PUSH2 0x6E2 PUSH2 0xAD4 JUMP JUMPDEST PUSH2 0x6EC DUP2 CALLER PUSH2 0xAFE JUMP JUMPDEST PUSH2 0x6F5 PUSH1 0x1 DUP1 SSTORE JUMP JUMPDEST POP JUMP JUMPDEST PUSH2 0x700 PUSH2 0xC7F JUMP JUMPDEST PUSH2 0x3E8 DUP2 GT ISZERO PUSH2 0x741 JUMPI PUSH1 0x40 MLOAD PUSH3 0x461BCD PUSH1 0xE5 SHL DUP2 MSTORE PUSH1 0x20 PUSH1 0x4 DUP3 ADD MSTORE PUSH1 0xC PUSH1 0x24 DUP3 ADD MSTORE PUSH12 0x8CCACA40E8DEDE40D0D2CED PUSH1 0xA3 SHL PUSH1 0x44 DUP3 ADD MSTORE PUSH1 0x64 ADD PUSH2 0x416 JUMP JUMPDEST PUSH1 0x7 SSTORE JUMP JUMPDEST PUSH2 0x74E PUSH2 0xAD4 JUMP JUMPDEST PUSH1 0x0 DUP2 GT PUSH2 0x793 JUMPI PUSH1 0x40 MLOAD PUSH3 0x461BCD PUSH1 0xE5 SHL DUP2 MSTORE PUSH1 0x20 PUSH1 0x4 DUP3 ADD MSTORE PUSH1 0x12 PUSH1 0x24 DUP3 ADD MSTORE PUSH18 0x416D6F756E74206D757374206265203E203 PUSH1 0x74 SHL PUSH1 0x44 DUP3 ADD MSTORE PUSH1 0x64 ADD PUSH2 0x416 JUMP JUMPDEST PUSH1 0x0 DUP3 DUP2 MSTORE PUSH1 0x3 PUSH1 0x20 MSTORE PUSH1 0x40 SWAP1 KECCAK256 PUSH1 0x4 DUP2 ADD SLOAD PUSH1 0xFF AND PUSH2 0x7E7 JUMPI PUSH1 0x40 MLOAD PUSH3 0x461BCD PUSH1 0xE5 SHL DUP2 MSTORE PUSH1 0x20 PUSH1 0x4 DUP3 ADD MSTORE PUSH1 0xF PUSH1 0x24 DUP3 ADD MSTORE PUSH15 0x506F6F6C206E6F7420616374697665 PUSH1 0x88 SHL PUSH1 0x44 DUP3 ADD MSTORE PUSH1 0x64 ADD PUSH2 0x416 JUMP JUMPDEST PUSH1 0x2 SLOAD PUSH2 0x7FF SWAP1 PUSH1 0x1 PUSH1 0x1 PUSH1 0xA0 SHL SUB AND CALLER ADDRESS DUP6 PUSH2 0xCFC JUMP JUMPDEST PUSH1 0x0 DUP4 DUP2 MSTORE PUSH1 0x4 PUSH1 0x20 SWAP1 DUP2 MSTORE PUSH1 0x40 DUP1 DUP4 KECCAK256 CALLER DUP5 MSTORE SWAP1 SWAP2 MSTORE SWAP1 KECCAK256 DUP1 SLOAD ISZERO PUSH2 0x829 JUMPI PUSH2 0x829 DUP5 CALLER PUSH2 0xAFE JUMP JUMPDEST DUP3 DUP2 PUSH1 0x0 ADD PUSH1 0x0 DUP3 DUP3 SLOAD PUSH2 0x83D SWAP2 SWAP1 PUSH2 0xEB9 JUMP JUMPDEST SWAP1 SWAP2 SSTORE POP POP TIMESTAMP PUSH1 0x1 DUP1 DUP4 ADD DUP3 SWAP1 SSTORE PUSH1 0x2 DUP4 ADD SWAP2 SWAP1 SWAP2 SSTORE DUP3 ADD DUP1 SLOAD DUP5 SWAP2 SWAP1 PUSH1 0x0 SWAP1 PUSH2 0x868 SWAP1 DUP5 SWAP1 PUSH2 0xEB9 JUMP JUMPDEST SWAP3 POP POP DUP2 SWAP1 SSTORE POP DUP3 PUSH1 0x6 PUSH1 0x0 DUP3 DUP3 SLOAD PUSH2 0x881 SWAP2 SWAP1 PUSH2 0xEB9 JUMP JUMPDEST SWAP1 SWAP2 SSTORE POP POP PUSH1 0x40 MLOAD DUP4 DUP2 MSTORE DUP5 SWAP1 CALLER SWAP1 PUSH32 0xB46FEBE4EFBBB5C019390B465ED6683766ACDECDEF421175B285B18932C27E2C SWAP1 PUSH1 0x20 ADD PUSH2 0x4CB JUMP JUMPDEST PUSH2 0x8C2 PUSH2 0xC7F JUMP JUMPDEST PUSH1 0x0 SWAP1 DUP2 MSTORE PUSH1 0x3 PUSH1 0x20 MSTORE PUSH1 0x40 SWAP1 KECCAK256 PUSH1 0x4 ADD DUP1 SLOAD PUSH1 0xFF NOT AND SWAP1 SSTORE JUMP JUMPDEST PUSH2 0x8E5 PUSH2 0xC7F JUMP JUMPDEST PUSH1 0x1 PUSH1 0x1 PUSH1 0xA0 SHL SUB DUP2 AND PUSH2 0x90F JUMPI PUSH1 0x40 MLOAD PUSH4 0x1E4FBDF7 PUSH1 0xE0 SHL DUP2 MSTORE PUSH1 0x0 PUSH1 0x4 DUP3 ADD MSTORE PUSH1 0x24 ADD PUSH2 0x416 JUMP JUMPDEST PUSH2 0x6F5 DUP2 PUSH2 0xCAC JUMP JUMPDEST PUSH2 0x920 PUSH2 0xC7F JUMP JUMPDEST PUSH1 0x0 DUP2 SGT PUSH2 0x970 JUMPI PUSH1 0x40 MLOAD PUSH3 0x461BCD PUSH1 0xE5 SHL DUP2 MSTORE PUSH1 0x20 PUSH1 0x4 DUP3 ADD MSTORE PUSH1 0x17 PUSH1 0x24 DUP3 ADD MSTORE PUSH32 0x50726F666974206D75737420626520706F736974697665000000000000000000 PUSH1 0x44 DUP3 ADD MSTORE PUSH1 0x64 ADD PUSH2 0x416 JUMP JUMPDEST PUSH1 0x0 DUP3 DUP2 MSTORE PUSH1 0x3 PUSH1 0x20 MSTORE PUSH1 0x40 SWAP1 KECCAK256 PUSH1 0x4 DUP2 ADD SLOAD PUSH1 0xFF AND PUSH2 0x9C4 JUMPI PUSH1 0x40 MLOAD PUSH3 0x461BCD PUSH1 0xE5 SHL DUP2 MSTORE PUSH1 0x20 PUSH1 0x4 DUP3 ADD MSTORE PUSH1 0xF PUSH1 0x24 DUP3 ADD MSTORE PUSH15 0x506F6F6C206E6F7420616374697665 PUSH1 0x88 SHL PUSH1 0x44 DUP3 ADD MSTORE PUSH1 0x64 ADD PUSH2 0x416 JUMP JUMPDEST PUSH1 0x0 DUP2 PUSH1 0x1 ADD SLOAD GT PUSH2 0xA05 JUMPI PUSH1 0x40 MLOAD PUSH3 0x461BCD PUSH1 0xE5 SHL DUP2 MSTORE PUSH1 0x20 PUSH1 0x4 DUP3 ADD MSTORE PUSH1 0xA PUSH1 0x24 DUP3 ADD MSTORE PUSH10 0x4E6F207374616B657273 PUSH1 0xB0 SHL PUSH1 0x44 DUP3 ADD MSTORE PUSH1 0x64 ADD PUSH2 0x416 JUMP JUMPDEST PUSH1 0x0 PUSH2 0x2710 PUSH1 0x7 SLOAD DUP5 PUSH2 0xA18 SWAP2 SWAP1 PUSH2 0xE80 JUMP JUMPDEST PUSH2 0xA22 SWAP2 SWAP1 PUSH2 0xE97 JUMP JUMPDEST SWAP1 POP PUSH1 0x0 PUSH2 0xA30 DUP3 DUP6 PUSH2 0xE67 JUMP JUMPDEST PUSH1 0x1 DUP5 ADD SLOAD SWAP1 SWAP2 POP PUSH2 0xA4A DUP3 PUSH8 0xDE0B6B3A7640000 PUSH2 0xE80 JUMP JUMPDEST PUSH2 0xA54 SWAP2 SWAP1 PUSH2 0xE97 JUMP JUMPDEST DUP4 PUSH1 0x3 ADD PUSH1 0x0 DUP3 DUP3 SLOAD PUSH2 0xA67 SWAP2 SWAP1 PUSH2 0xEB9 JUMP JUMPDEST SWAP3 POP POP DUP2 SWAP1 SSTORE POP DUP4 DUP4 PUSH1 0x2 ADD PUSH1 0x0 DUP3 DUP3 SLOAD PUSH2 0xA82 SWAP2 SWAP1 PUSH2 0xECC JUMP JUMPDEST SWAP1 SWAP2 SSTORE POP POP PUSH1 0x3 DUP4 ADD SLOAD PUSH1 0x40 MLOAD DUP7 SWAP2 PUSH32 0xC8E637AC3584D8FA30F2000B2F4221D5514FE4AA9F59BA57050436983B8012B0 SWAP2 PUSH2 0xAC5 SWAP2 DUP9 DUP3 MSTORE PUSH1 0x20 DUP3 ADD MSTORE PUSH1 0x40 ADD SWAP1 JUMP JUMPDEST PUSH1 0x40 MLOAD DUP1 SWAP2 SUB SWAP1 LOG2 POP POP POP POP POP JUMP JUMPDEST PUSH1 0x2 PUSH1 0x1 SLOAD SUB PUSH2 0xAF7 JUMPI PUSH1 0x40 MLOAD PUSH4 0x3EE5AEB5 PUSH1 0xE0 SHL DUP2 MSTORE PUSH1 0x4 ADD PUSH1 0x40 MLOAD DUP1 SWAP2 SUB SWAP1 REVERT JUMPDEST PUSH1 0x2 PUSH1 0x1 SSTORE JUMP JUMPDEST PUSH1 0x0 DUP3 DUP2 MSTORE PUSH1 0x4 PUSH1 0x20 SWAP1 DUP2 MSTORE PUSH1 0x40 DUP1 DUP4 KECCAK256 PUSH1 0x1 PUSH1 0x1 PUSH1 0xA0 SHL SUB DUP6 AND DUP5 MSTORE SWAP1 SWAP2 MSTORE SWAP1 KECCAK256 DUP1 SLOAD PUSH2 0xB59 JUMPI PUSH1 0x40 MLOAD PUSH3 0x461BCD PUSH1 0xE5 SHL DUP2 MSTORE PUSH1 0x20 PUSH1 0x4 DUP3 ADD MSTORE PUSH1 0x8 PUSH1 0x24 DUP3 ADD MSTORE PUSH8 0x4E6F207374616B65 PUSH1 0xC0 SHL PUSH1 0x44 DUP3 ADD MSTORE PUSH1 0x64 ADD PUSH2 0x416 JUMP JUMPDEST PUSH1 0x0 DUP4 DUP2 MSTORE PUSH1 0x3 PUSH1 0x20 DUP2 SWAP1 MSTORE PUSH1 0x40 DUP3 KECCAK256 SWAP1 DUP2 ADD SLOAD DUP4 SLOAD SWAP2 SWAP3 SWAP2 PUSH8 0xDE0B6B3A7640000 SWAP2 PUSH2 0xB85 SWAP2 PUSH2 0xE80 JUMP JUMPDEST PUSH2 0xB8F SWAP2 SWAP1 PUSH2 0xE97 JUMP JUMPDEST SWAP1 POP DUP1 ISZERO PUSH2 0xC14 JUMPI DUP1 DUP4 PUSH1 0x3 ADD PUSH1 0x0 DUP3 DUP3 SLOAD PUSH2 0xBAB SWAP2 SWAP1 PUSH2 0xEB9 JUMP JUMPDEST SWAP1 SWAP2 SSTORE POP POP TIMESTAMP PUSH1 0x2 DUP1 DUP6 ADD SWAP2 SWAP1 SWAP2 SSTORE SLOAD PUSH2 0xBCF SWAP1 PUSH1 0x1 PUSH1 0x1 PUSH1 0xA0 SHL SUB AND DUP6 DUP4 PUSH2 0xC1B JUMP JUMPDEST DUP5 DUP5 PUSH1 0x1 PUSH1 0x1 PUSH1 0xA0 SHL SUB AND PUSH32 0x5A04F6339C8B68EC7067482FB9DC22D02081714E02E4FD0F56F4E3D0DD9B4E5 DUP4 PUSH1 0x40 MLOAD PUSH2 0xC0B SWAP2 DUP2 MSTORE PUSH1 0x20 ADD SWAP1 JUMP JUMPDEST PUSH1 0x40 MLOAD DUP1 SWAP2 SUB SWAP1 LOG3 JUMPDEST POP POP POP POP POP JUMP JUMPDEST PUSH1 0x40 MLOAD PUSH1 0x1 PUSH1 0x1 PUSH1 0xA0 SHL SUB DUP4 DUP2 AND PUSH1 0x24 DUP4 ADD MSTORE PUSH1 0x44 DUP3 ADD DUP4 SWAP1 MSTORE PUSH2 0xC7A SWAP2 DUP6 SWAP2 DUP3 AND SWAP1 PUSH4 0xA9059CBB SWAP1 PUSH1 0x64 ADD JUMPDEST PUSH1 0x40 MLOAD PUSH1 0x20 DUP2 DUP4 SUB SUB DUP2 MSTORE SWAP1 PUSH1 0x40 MSTORE SWAP2 POP PUSH1 0xE0 SHL PUSH1 0x20 DUP3 ADD DUP1 MLOAD PUSH1 0x1 PUSH1 0x1 PUSH1 0xE0 SHL SUB DUP4 DUP2 DUP4 AND OR DUP4 MSTORE POP POP POP POP PUSH2 0xD3B JUMP JUMPDEST POP POP POP JUMP JUMPDEST PUSH1 0x0 SLOAD PUSH1 0x1 PUSH1 0x1 PUSH1 0xA0 SHL SUB AND CALLER EQ PUSH2 0x6D8 JUMPI PUSH1 0x40 MLOAD PUSH4 0x118CDAA7 PUSH1 0xE0 SHL DUP2 MSTORE CALLER PUSH1 0x4 DUP3 ADD MSTORE PUSH1 0x24 ADD PUSH2 0x416 JUMP JUMPDEST PUSH1 0x0 DUP1 SLOAD PUSH1 0x1 PUSH1 0x1 PUSH1 0xA0 SHL SUB DUP4 DUP2 AND PUSH1 0x1 PUSH1 0x1 PUSH1 0xA0 SHL SUB NOT DUP4 AND DUP2 OR DUP5 SSTORE PUSH1 0x40 MLOAD SWAP2 SWAP1 SWAP3 AND SWAP3 DUP4 SWAP2 PUSH32 0x8BE0079C531659141344CD1FD0A4F28419497F9722A3DAAFE3B4186F6B6457E0 SWAP2 SWAP1 LOG3 POP POP JUMP JUMPDEST PUSH1 0x40 MLOAD PUSH1 0x1 PUSH1 0x1 PUSH1 0xA0 SHL SUB DUP5 DUP2 AND PUSH1 0x24 DUP4 ADD MSTORE DUP4 DUP2 AND PUSH1 0x44 DUP4 ADD MSTORE PUSH1 0x64 DUP3 ADD DUP4 SWAP1 MSTORE PUSH2 0xD35 SWAP2 DUP7 SWAP2 DUP3 AND SWAP1 PUSH4 0x23B872DD SWAP1 PUSH1 0x84 ADD PUSH2 0xC48 JUMP JUMPDEST POP POP POP POP JUMP JUMPDEST PUSH1 0x0 DUP1 PUSH1 0x20 PUSH1 0x0 DUP5 MLOAD PUSH1 0x20 DUP7 ADD PUSH1 0x0 DUP9 GAS CALL DUP1 PUSH2 0xD5E JUMPI PUSH1 0x40 MLOAD RETURNDATASIZE PUSH1 0x0 DUP3 RETURNDATACOPY RETURNDATASIZE DUP2 REVERT JUMPDEST POP POP PUSH1 0x0 MLOAD RETURNDATASIZE SWAP2 POP DUP2 ISZERO PUSH2 0xD76 JUMPI DUP1 PUSH1 0x1 EQ ISZERO PUSH2 0xD83 JUMP JUMPDEST PUSH1 0x1 PUSH1 0x1 PUSH1 0xA0 SHL SUB DUP5 AND EXTCODESIZE ISZERO JUMPDEST ISZERO PUSH2 0xD35 JUMPI PUSH1 0x40 MLOAD PUSH4 0x5274AFE7 PUSH1 0xE0 SHL DUP2 MSTORE PUSH1 0x1 PUSH1 0x1 PUSH1 0xA0 SHL SUB DUP6 AND PUSH1 0x4 DUP3 ADD MSTORE PUSH1 0x24 ADD PUSH2 0x416 JUMP JUMPDEST PUSH1 0x0 DUP1 PUSH1 0x40 DUP4 DUP6 SUB SLT ISZERO PUSH2 0xDBF JUMPI PUSH1 0x0 DUP1 REVERT JUMPDEST POP POP DUP1 CALLDATALOAD SWAP3 PUSH1 0x20 SWAP1 SWAP2 ADD CALLDATALOAD SWAP2 POP JUMP JUMPDEST PUSH1 0x0 PUSH1 0x20 DUP3 DUP5 SUB SLT ISZERO PUSH2 0xDE0 JUMPI PUSH1 0x0 DUP1 REVERT JUMPDEST POP CALLDATALOAD SWAP2 SWAP1 POP JUMP JUMPDEST DUP1 CALLDATALOAD PUSH1 0x1 PUSH1 0x1 PUSH1 0xA0 SHL SUB DUP2 AND DUP2 EQ PUSH2 0xDFE JUMPI PUSH1 0x0 DUP1 REVERT JUMPDEST SWAP2 SWAP1 POP JUMP JUMPDEST PUSH1 0x0 DUP1 PUSH1 0x40 DUP4 DUP6 SUB SLT ISZERO PUSH2 0xE16 JUMPI PUSH1 0x0 DUP1 REVERT JUMPDEST DUP3 CALLDATALOAD SWAP2 POP PUSH2 0xE26 PUSH1 0x20 DUP5 ADD PUSH2 0xDE7 JUMP JUMPDEST SWAP1 POP SWAP3 POP SWAP3 SWAP1 POP JUMP JUMPDEST PUSH1 0x0 PUSH1 0x20 DUP3 DUP5 SUB SLT ISZERO PUSH2 0xE41 JUMPI PUSH1 0x0 DUP1 REVERT JUMPDEST PUSH2 0xE4A DUP3 PUSH2 0xDE7 JUMP JUMPDEST SWAP4 SWAP3 POP POP POP JUMP JUMPDEST PUSH4 0x4E487B71 PUSH1 0xE0 SHL PUSH1 0x0 MSTORE PUSH1 0x11 PUSH1 0x4 MSTORE PUSH1 0x24 PUSH1 0x0 REVERT JUMPDEST DUP2 DUP2 SUB DUP2 DUP2 GT ISZERO PUSH2 0xE7A JUMPI PUSH2 0xE7A PUSH2 0xE51 JUMP JUMPDEST SWAP3 SWAP2 POP POP JUMP JUMPDEST DUP1 DUP3 MUL DUP2 ISZERO DUP3 DUP3 DIV DUP5 EQ OR PUSH2 0xE7A JUMPI PUSH2 0xE7A PUSH2 0xE51 JUMP JUMPDEST PUSH1 0x0 DUP3 PUSH2 0xEB4 JUMPI PUSH4 0x4E487B71 PUSH1 0xE0 SHL PUSH1 0x0 MSTORE PUSH1 0x12 PUSH1 0x4 MSTORE PUSH1 0x24 PUSH1 0x0 REVERT JUMPDEST POP DIV SWAP1 JUMP JUMPDEST DUP1 DUP3 ADD DUP1 DUP3 GT ISZERO PUSH2 0xE7A JUMPI PUSH2 0xE7A PUSH2 0xE51 JUMP JUMPDEST DUP1 DUP3 ADD DUP3 DUP2 SLT PUSH1 0x0 DUP4 SLT DUP1 ISZERO DUP3 AND DUP3 ISZERO DUP3 AND OR ISZERO PUSH2 0xEEC JUMPI PUSH2 0xEEC PUSH2 0xE51 JUMP JUMPDEST POP POP SWAP3 SWAP2 POP POP JUMP INVALID LOG2 PUSH5 0x6970667358 0x22 SLT KECCAK256 SMOD 0x23 SWAP9 SWAP8 DUP8 LOG3 BYTE PUSH20 0xD993601CAE2F8EC2209AE39D4B4971CFA7089C83 INVALID 0x2E 0x24 0xAD PUSH5 0x736F6C6343 STOP ADDMOD EQ STOP CALLER "},"methodIdentifiers":{"activeAgents(uint256)":"520d5e25","agentPools(bytes32)":"b6534d90","claimRewards(bytes32)":"7790ddc6","createAgentPool(bytes32)":"4aa7a63b","deactivatePool(bytes32)":"d9d97859","distributeProfits(bytes32,int256)":"f94e4c85","getPoolStats(bytes32)":"71b6aaac","getStakeInfo(bytes32,address)":"64124491","owner()":"8da5cb5b","protocolFeePercent()":"d6e6eb9f","renounceOwnership()":"715018a6","setProtocolFee(uint256)":"787dce3d","stake(bytes32,uint256)":"8caa5230","stakes(bytes32,address)":"a7b9828f","stakingToken()":"72f702f3","totalValueLocked()":"ec18154e","transferOwnership(address)":"f2fde38b","unstake(bytes32,uint256)":"16ae261d"}}}}}