{
  "_format": "hh-sol-artifact-1",
  "contractName": "StakingPool",
  "sourceName": "contracts/StakingPool.sol",
  "abi": [
    {
      "inputs": [
        {
          "internalType": "address",
          "name": "_stakingToken",
          "type": "address"
        }
      ],
      "stateMutability": "nonpayable",
      "type": "constructor"
    },
    {
      "inputs": [
        {
          "internalType": "address",
          "name": "owner",
          "type": "address"
        }
      ],
      "name": "OwnableInvalidOwner",
      "type": "error"
    },
    {
      "inputs": [
        {
          "internalType": "address",
          "name": "account",
          "type": "address"
        }
      ],
      "name": "OwnableUnauthorizedAccount",
      "type": "error"
    },
    {
      "inputs": [],
      "name": "ReentrancyGuardReentrantCall",
      "type": "error"
    },
    {
      "inputs": [
        {
          "internalType": "address",
          "name": "token",
          "type": "address"
        }
      ],
      "name": "SafeERC20FailedOperation",
      "type": "error"
    },
    {
      "anonymous": false,
      "inputs": [
        {
          "indexed": true,
          "internalType": "address",
          "name": "previousOwner",
          "type": "address"
        },
        {
          "indexed": true,
          "internalType": "address",
          "name": "newOwner",
          "type": "address"
        }
      ],
      "name": "OwnershipTransferred",
      "type": "event"
    },
    {
      "anonymous": false,
      "inputs": [
        {
          "indexed": true,
          "internalType": "bytes32",
          "name": "agentId",
          "type": "bytes32"
        },
        {
          "indexed": false,
          "internalType": "int256",
          "name": "profitAmount",
          "type": "int256"
        },
        {
          "indexed": false,
          "internalType": "uint256",
          "name": "rewardPerShare",
          "type": "uint256"
        }
      ],
      "name": "ProfitDistributed",
      "type": "event"
    },
    {
      "anonymous": false,
      "inputs": [
        {
          "indexed": true,
          "internalType": "address",
          "name": "staker",
          "type": "address"
        },
        {
          "indexed": true,
          "internalType": "bytes32",
          "name": "agentId",
          "type": "bytes32"
        },
        {
          "indexed": false,
          "internalType": "uint256",
          "name": "amount",
          "type": "uint256"
        }
      ],
      "name": "RewardsClaimed",
      "type": "event"
    },
    {
      "anonymous": false,
      "inputs": [
        {
          "indexed": true,
          "internalType": "address",
          "name": "staker",
          "type": "address"
        },
        {
          "indexed": true,
          "internalType": "bytes32",
          "name": "agentId",
          "type": "bytes32"
        },
        {
          "indexed": false,
          "internalType": "uint256",
          "name": "amount",
          "type": "uint256"
        }
      ],
      "name": "Staked",
      "type": "event"
    },
    {
      "anonymous": false,
      "inputs": [
        {
          "indexed": true,
          "internalType": "address",
          "name": "staker",
          "type": "address"
        },
        {
          "indexed": true,
          "internalType": "bytes32",
          "name": "agentId",
          "type": "bytes32"
        },
        {
          "indexed": false,
          "internalType": "uint256",
          "name": "amount",
          "type": "uint256"
        }
      ],
      "name": "Unstaked",
      "type": "event"
    },
    {
      "inputs": [
        {
          "internalType": "uint256",
          "name": "",
          "type": "uint256"
        }
      ],
      "name": "activeAgents",
      "outputs": [
        {
          "internalType": "bytes32",
          "name": "",
          "type": "bytes32"
        }
      ],
      "stateMutability": "view",
      "type": "function"
    },
    {
      "inputs": [
        {
          "internalType": "bytes32",
          "name": "",
          "type": "bytes32"
        }
      ],
      "name": "agentPools",
      "outputs": [
        {
          "internalType": "bytes32",
          "name": "agentId",
          "type": "bytes32"
        },
        {
          "internalType": "uint256",
          "name": "totalStaked",
          "type": "uint256"
        },
        {
          "internalType": "int256",
          "name": "totalProfitGenerated",
          "type": "int256"
        },
        {
          "internalType": "uint256",
          "name": "rewardPerShare",
          "type": "uint256"
        },
        {
          "internalType": "bool",
          "name": "isActive",
          "type": "bool"
        }
      ],
      "stateMutability": "view",
      "type": "function"
    },
    {
      "inputs": [
        {
          "internalType": "bytes32",
          "name": "agentId",
          "type": "bytes32"
        }
      ],
      "name": "claimRewards",
      "outputs": [],
      "stateMutability": "nonpayable",
      "type": "function"
    },
    {
      "inputs": [
        {
          "internalType": "bytes32",
          "name": "agentId",
          "type": "bytes32"
        }
      ],
      "name": "createAgentPool",
      "outputs": [],
      "stateMutability": "nonpayable",
      "type": "function"
    },
    {
      "inputs": [
        {
          "internalType": "bytes32",
          "name": "agentId",
          "type": "bytes32"
        }
      ],
      "name": "deactivatePool",
      "outputs": [],
      "stateMutability": "nonpayable",
      "type": "function"
    },
    {
      "inputs": [
        {
          "internalType": "bytes32",
          "name": "agentId",
          "type": "bytes32"
        },
        {
          "internalType": "int256",
          "name": "profitAmount",
          "type": "int256"
        }
      ],
      "name": "distributeProfits",
      "outputs": [],
      "stateMutability": "nonpayable",
      "type": "function"
    },
    {
      "inputs": [
        {
          "internalType": "bytes32",
          "name": "agentId",
          "type": "bytes32"
        }
      ],
      "name": "getPoolStats",
      "outputs": [
        {
          "internalType": "uint256",
          "name": "totalStaked",
          "type": "uint256"
        },
        {
          "internalType": "int256",
          "name": "totalProfit",
          "type": "int256"
        },
        {
          "internalType": "uint256",
          "name": "rewardPerShare",
          "type": "uint256"
        },
        {
          "internalType": "bool",
          "name": "isActive",
          "type": "bool"
        }
      ],
      "stateMutability": "view",
      "type": "function"
    },
    {
      "inputs": [
        {
          "internalType": "bytes32",
          "name": "agentId",
          "type": "bytes32"
        },
        {
          "internalType": "address",
          "name": "staker",
          "type": "address"
        }
      ],
      "name": "getStakeInfo",
      "outputs": [
        {
          "internalType": "uint256",
          "name": "stakedAmount",
          "type": "uint256"
        },
        {
          "internalType": "uint256",
          "name": "pendingRewards",
          "type": "uint256"
        },
        {
          "internalType": "uint256",
          "name": "stakedAt",
          "type": "uint256"
        }
      ],
      "stateMutability": "view",
      "type": "function"
    },
    {
      "inputs": [],
      "name": "owner",
      "outputs": [
        {
          "internalType": "address",
          "name": "",
          "type": "address"
        }
      ],
      "stateMutability": "view",
      "type": "function"
    },
    {
      "inputs": [],
      "name": "protocolFeePercent",
      "outputs": [
        {
          "internalType": "uint256",
          "name": "",
          "type": "uint256"
        }
      ],
      "stateMutability": "view",
      "type": "function"
    },
    {
      "inputs": [],
      "name": "renounceOwnership",
      "outputs": [],
      "stateMutability": "nonpayable",
      "type": "function"
    },
    {
      "inputs": [
        {
          "internalType": "uint256",
          "name": "_feePercent",
          "type": "uint256"
        }
      ],
      "name": "setProtocolFee",
      "outputs": [],
      "stateMutability": "nonpayable",
      "type": "function"
    },
    {
      "inputs": [
        {
          "internalType": "bytes32",
          "name": "agentId",
          "type": "bytes32"
        },
        {
          "internalType": "uint256",
          "name": "amount",
          "type": "uint256"
        }
      ],
      "name": "stake",
      "outputs": [],
      "stateMutability": "nonpayable",
      "type": "function"
    },
    {
      "inputs": [
        {
          "internalType": "bytes32",
          "name": "",
          "type": "bytes32"
        },
        {
          "internalType": "address",
          "name": "",
          "type": "address"
        }
      ],
      "name": "stakes",
      "outputs": [
        {
          "internalType": "uint256",
          "name": "amount",
          "type": "uint256"
        },
        {
          "internalType": "uint256",
          "name": "stakedAt",
          "type": "uint256"
        },
        {
          "internalType": "uint256",
          "name": "lastClaimAt",
          "type": "uint256"
        },
        {
          "internalType": "uint256",
          "name": "rewardsAccrued",
          "type": "uint256"
        }
      ],
      "stateMutability": "view",
      "type": "function"
    },
    {
      "inputs": [],
      "name": "stakingToken",
      "outputs": [
        {
          "internalType": "contract IERC20",
          "name": "",
          "type": "address"
        }
      ],
      "stateMutability": "view",
      "type": "function"
    },
    {
      "inputs": [],
      "name": "totalValueLocked",
      "outputs": [
        {
          "internalType": "uint256",
          "name": "",
          "type": "uint256"
        }
      ],
      "stateMutability": "view",
      "type": "function"
    },
    {
      "inputs": [
        {
          "internalType": "address",
          "name": "newOwner",
          "type": "address"
        }
      ],
      "name": "transferOwnership",
      "outputs": [],
      "stateMutability": "nonpayable",
      "type": "function"
    },
    {
      "inputs": [
        {
          "internalType": "bytes32",
          "name": "agentId",
          "type": "bytes32"
        },
        {
          "internalType": "uint256",
          "name": "amount",
          "type": "uint256"
        }
      ],
      "name": "unstake",
      "outputs": [],
      "stateMutability": "nonpayable",
      "type": "function"
    }
  ],
  "bytecode": "0x60806040526101f460075534801561001657600080fd5b50604051611047380380611047833981016040819052610035916100de565b338061005b57604051631e4fbdf760e01b81526000600482015260240160405180910390fd5b6100648161008e565b5060018055600280546001600160a01b0319166001600160a01b039290921691909117905561010e565b600080546001600160a01b038381166001600160a01b0319831681178455604051919092169283917f8be0079c531659141344cd1fd0a4f28419497f9722a3daafe3b4186f6b6457e09190a35050565b6000602082840312156100f057600080fd5b81516001600160a01b038116811461010757600080fd5b9392505050565b610f2a8061011d6000396000f3fe608060405234801561001057600080fd5b50600436106101165760003560e01c80638caa5230116100a2578063d6e6eb9f11610071578063d6e6eb9f14610368578063d9d9785914610371578063ec18154e14610384578063f2fde38b1461038d578063f94e4c85146103a057600080fd5b80638caa5230146102795780638da5cb5b1461028c578063a7b9828f1461029d578063b6534d90146102fd57600080fd5b8063715018a6116100e9578063715018a61461019757806371b6aaac1461019f57806372f702f3146102285780637790ddc614610253578063787dce3d1461026657600080fd5b806316ae261d1461011b5780634aa7a63b14610130578063520d5e25146101435780636412449114610169575b600080fd5b61012e610129366004610dac565b6103b3565b005b61012e61013e366004610dce565b6104e2565b610156610151366004610dce565b6105d5565b6040519081526020015b60405180910390f35b61017c610177366004610e03565b6105f6565b60408051938452602084019290925290820152606001610160565b61012e6106c6565b6102066101ad366004610dce565b600090815260036020818152604092839020835160a0810185528154815260018201549281018390526002820154948101859052928101546060840181905260049091015460ff16151560809093018390529093909190565b6040805194855260208501939093529183015215156060820152608001610160565b60025461023b906001600160a01b031681565b6040516001600160a01b039091168152602001610160565b61012e610261366004610dce565b6106da565b61012e610274366004610dce565b6106f8565b61012e610287366004610dac565b610746565b6000546001600160a01b031661023b565b6102dd6102ab366004610e03565b600460209081526000928352604080842090915290825290208054600182015460028301546003909301549192909184565b604080519485526020850193909352918301526060820152608001610160565b61033e61030b366004610dce565b60036020819052600091825260409091208054600182015460028301549383015460049093015491939092909160ff1685565b6040805195865260208601949094529284019190915260608301521515608082015260a001610160565b61015660075481565b61012e61037f366004610dce565b6108ba565b61015660065481565b61012e61039b366004610e2f565b6108dd565b61012e6103ae366004610dac565b610918565b6103bb610ad4565b60008281526004602090815260408083203384529091529020805482111561041f5760405162461bcd60e51b8152602060048201526012602482015271496e73756666696369656e74207374616b6560701b60448201526064015b60405180910390fd5b60008381526003602052604090206104378433610afe565b8282600001600082825461044b9190610e67565b92505081905550828160010160008282546104669190610e67565b92505081905550826006600082825461047f9190610e67565b909155505060025461049b906001600160a01b03163385610c1b565b604051838152849033907f2774090e627869eaafcd1e79e291786f7d2bcc2f62467b75effa5739ac1df914906020015b60405180910390a350506104de60018055565b5050565b6104ea610c7f565b6000818152600360205260409020541561053c5760405162461bcd60e51b8152602060048201526013602482015272506f6f6c20616c72656164792065786973747360681b6044820152606401610416565b6040805160a08101825282815260006020808301828152838501838152606085018481526001608087018181528987526003958690529786209651875592518684015590516002860155519184019190915592516004909201805460ff19169215159290921790915560058054928301815590527f036b6384b5eca791c62761152d0c79bb0604c104a5fb6f4eb0703f3154bb3db00155565b600581815481106105e557600080fd5b600091825260209091200154905081565b60008281526004602081815260408084206001600160a01b038616855282528084208151608080820184528254825260018084015483870152600280850154848701526003948501546060808601919091528b8a52858852868a20875160a081018952815481529381015498840198909852908701549582019590955292850154938301849052939094015460ff161515928101929092528251939283929091670de0b6b3a7640000906106aa9087610e80565b6106b49190610e97565b93508160200151925050509250925092565b6106ce610c7f565b6106d86000610cac565b565b6106e2610ad4565b6106ec8133610afe565b6106f560018055565b50565b610700610c7f565b6103e88111156107415760405162461bcd60e51b815260206004820152600c60248201526b08ccaca40e8dede40d0d2ced60a31b6044820152606401610416565b600755565b61074e610ad4565b600081116107935760405162461bcd60e51b81526020600482015260126024820152710416d6f756e74206d757374206265203e20360741b6044820152606401610416565b6000828152600360205260409020600481015460ff166107e75760405162461bcd60e51b815260206004820152600f60248201526e506f6f6c206e6f742061637469766560881b6044820152606401610416565b6002546107ff906001600160a01b0316333085610cfc565b60008381526004602090815260408083203384529091529020805415610829576108298433610afe565b8281600001600082825461083d9190610eb9565b9091555050426001808301829055600283019190915582018054849190600090610868908490610eb9565b9250508190555082600660008282546108819190610eb9565b9091555050604051838152849033907fb46febe4efbbb5c019390b465ed6683766acdecdef421175b285b18932c27e2c906020016104cb565b6108c2610c7f565b6000908152600360205260409020600401805460ff19169055565b6108e5610c7f565b6001600160a01b03811661090f57604051631e4fbdf760e01b815260006004820152602401610416565b6106f581610cac565b610920610c7f565b600081136109705760405162461bcd60e51b815260206004820152601760248201527f50726f666974206d75737420626520706f7369746976650000000000000000006044820152606401610416565b6000828152600360205260409020600481015460ff166109c45760405162461bcd60e51b815260206004820152600f60248201526e506f6f6c206e6f742061637469766560881b6044820152606401610416565b6000816001015411610a055760405162461bcd60e51b815260206004820152600a6024820152694e6f207374616b65727360b01b6044820152606401610416565b600061271060075484610a189190610e80565b610a229190610e97565b90506000610a308285610e67565b6001840154909150610a4a82670de0b6b3a7640000610e80565b610a549190610e97565b836003016000828254610a679190610eb9565b9250508190555083836002016000828254610a829190610ecc565b9091555050600383015460405186917fc8e637ac3584d8fa30f2000b2f4221d5514fe4aa9f59ba57050436983b8012b091610ac591888252602082015260400190565b60405180910390a25050505050565b600260015403610af757604051633ee5aeb560e01b815260040160405180910390fd5b6002600155565b60008281526004602090815260408083206001600160a01b038516845290915290208054610b595760405162461bcd60e51b81526020600482015260086024820152674e6f207374616b6560c01b6044820152606401610416565b60008381526003602081905260408220908101548354919291670de0b6b3a764000091610b8591610e80565b610b8f9190610e97565b90508015610c145780836003016000828254610bab9190610eb9565b90915550504260028085019190915554610bcf906001600160a01b03168583610c1b565b84846001600160a01b03167f05a04f6339c8b68ec7067482fb9dc22d02081714e02e4fd0f56f4e3d0dd9b4e583604051610c0b91815260200190565b60405180910390a35b5050505050565b6040516001600160a01b03838116602483015260448201839052610c7a91859182169063a9059cbb906064015b604051602081830303815290604052915060e01b6020820180516001600160e01b038381831617835250505050610d3b565b505050565b6000546001600160a01b031633146106d85760405163118cdaa760e01b8152336004820152602401610416565b600080546001600160a01b038381166001600160a01b0319831681178455604051919092169283917f8be0079c531659141344cd1fd0a4f28419497f9722a3daafe3b4186f6b6457e09190a35050565b6040516001600160a01b038481166024830152838116604483015260648201839052610d359186918216906323b872dd90608401610c48565b50505050565b600080602060008451602086016000885af180610d5e576040513d6000823e3d81fd5b50506000513d91508115610d76578060011415610d83565b6001600160a01b0384163b155b15610d3557604051635274afe760e01b81526001600160a01b0385166004820152602401610416565b60008060408385031215610dbf57600080fd5b50508035926020909101359150565b600060208284031215610de057600080fd5b5035919050565b80356001600160a01b0381168114610dfe57600080fd5b919050565b60008060408385031215610e1657600080fd5b82359150610e2660208401610de7565b90509250929050565b600060208284031215610e4157600080fd5b610e4a82610de7565b9392505050565b634e487b7160e01b600052601160045260246000fd5b81810381811115610e7a57610e7a610e51565b92915050565b8082028115828204841417610e7a57610e7a610e51565b600082610eb457634e487b7160e01b600052601260045260246000fd5b500490565b80820180821115610e7a57610e7a610e51565b8082018281126000831280158216821582161715610eec57610eec610e51565b50509291505056fea26469706673582212200723989787a31a73d993601cae2f8ec2209ae39d4b4971cfa7089c83fe2e24ad64736f6c63430008140033",
  "linkReferences": {},
  "deployedLinkReferences": {}
}